{
  "_format": "hh-sol-artifact-1",
  "contractName": "WavePortal",
  "sourceName": "contracts/WavePortal.sol",
  "abi": [
    {
      "inputs": [],
      "stateMutability": "payable",
      "type": "constructor"
    },
    {
      "anonymous": false,
      "inputs": [
        {
          "indexed": false,
          "internalType": "string",
          "name": "message",
          "type": "string"
        },
        {
          "indexed": false,
          "internalType": "uint256",
          "name": "timestamp",
          "type": "uint256"
        }
      ],
      "name": "NewWave",
      "type": "event"
    },
    {
      "inputs": [
        {
          "internalType": "address",
          "name": "_waver",
          "type": "address"
        }
      ],
      "name": "getWaves",
      "outputs": [
        {
          "internalType": "string[]",
          "name": "",
          "type": "string[]"
        },
        {
          "internalType": "uint256[]",
          "name": "",
          "type": "uint256[]"
        }
      ],
      "stateMutability": "view",
      "type": "function"
    },
    {
      "inputs": [
        {
          "internalType": "string",
          "name": "_message",
          "type": "string"
        }
      ],
      "name": "wave",
      "outputs": [],
      "stateMutability": "nonpayable",
      "type": "function"
    }
  ],
  "bytecode": "0x60806040526200004f6040518060400160405280601781526020017f5765277665206265656e20636f6e7374727563746564210000000000000000008152506200007760201b620007651760201c565b606444426200005f9190620001c4565b6200006b919062000261565b60018190555062000308565b62000117816040516024016200008e919062000184565b6040516020818303038152906040527f41304fac000000000000000000000000000000000000000000000000000000007bffffffffffffffffffffffffffffffffffffffffffffffffffffffff19166020820180517bffffffffffffffffffffffffffffffffffffffffffffffffffffffff83818316178352505050506200011a60201b60201c565b50565b60008151905060006a636f6e736f6c652e6c6f679050602083016000808483855afa5050505050565b60006200015082620001a8565b6200015c8185620001b3565b93506200016e8185602086016200022b565b6200017981620002f7565b840191505092915050565b60006020820190508181036000830152620001a0818462000143565b905092915050565b600081519050919050565b600082825260208201905092915050565b6000620001d18262000221565b9150620001de8362000221565b9250827fffffffffffffffffffffffffffffffffffffffffffffffffffffffffffffffff0382111562000216576200021562000299565b5b828201905092915050565b6000819050919050565b60005b838110156200024b5780820151818401526020810190506200022e565b838111156200025b576000848401525b50505050565b60006200026e8262000221565b91506200027b8362000221565b9250826200028e576200028d620002c8565b5b828206905092915050565b7f4e487b7100000000000000000000000000000000000000000000000000000000600052601160045260246000fd5b7f4e487b7100000000000000000000000000000000000000000000000000000000600052601260045260246000fd5b6000601f19601f8301169050919050565b6113ff80620003186000396000f3fe608060405234801561001057600080fd5b50600436106100365760003560e01c806329dec6e11461003b578063449d46c01461006c575b600080fd5b61005560048036038101906100509190610b21565b610088565b604051610063929190610dca565b60405180910390f35b61008660048036038101906100819190610b4a565b610396565b005b60608060008060008573ffffffffffffffffffffffffffffffffffffffff1673ffffffffffffffffffffffffffffffffffffffff168152602001908152602001600020905060008180549050905060008167ffffffffffffffff811115610118577f4e487b7100000000000000000000000000000000000000000000000000000000600052604160045260246000fd5b60405190808252806020026020018201604052801561014b57816020015b60608152602001906001900390816101365790505b50905060008267ffffffffffffffff811115610190577f4e487b7100000000000000000000000000000000000000000000000000000000600052604160045260246000fd5b6040519080825280602002602001820160405280156101be5781602001602082028036833780820191505090505b50905060005b8381101561038657848181548110610205577f4e487b7100000000000000000000000000000000000000000000000000000000600052603260045260246000fd5b906000526020600020906002020160000180546102219061113e565b80601f016020809104026020016040519081016040528092919081815260200182805461024d9061113e565b801561029a5780601f1061026f5761010080835404028352916020019161029a565b820191906000526020600020905b81548152906001019060200180831161027d57829003601f168201915b50505050508382815181106102d8577f4e487b7100000000000000000000000000000000000000000000000000000000600052603260045260246000fd5b602002602001018190525084818154811061031c577f4e487b7100000000000000000000000000000000000000000000000000000000600052603260045260246000fd5b906000526020600020906002020160010154828281518110610367577f4e487b7100000000000000000000000000000000000000000000000000000000600052603260045260246000fd5b602002602001018181525050808061037e906111a1565b9150506101c4565b5081819550955050505050915091565b60008060003373ffffffffffffffffffffffffffffffffffffffff1673ffffffffffffffffffffffffffffffffffffffff168152602001908152602001600020905060008180549050148061045157504261038482600184805490506103fc919061108c565b81548110610433577f4e487b7100000000000000000000000000000000000000000000000000000000600052603260045260246000fd5b90600052602060002090600202016001015461044f9190611036565b105b610490576040517f08c379a000000000000000000000000000000000000000000000000000000000815260040161048790610f16565b60405180910390fd5b6000803373ffffffffffffffffffffffffffffffffffffffff1673ffffffffffffffffffffffffffffffffffffffff16815260200190815260200160002060405180604001604052808481526020014281525090806001815401808255809150506001900390600052602060002090600202016000909190919091506000820151816000019080519060200190610528929190610a01565b506020820151816001015550506105766040518060400160405280601681526020017f2573206861732077617665642061742025643a202573000000000000000000008152503342856107fe565b7fd6c4eeceab75e94089dd28aa2e9ae04a1bbdf787a32fb5c0c215a45b829878ea82426040516105a7929190610ea6565b60405180910390a1606460015444426105c09190611036565b6105ca9190611036565b6105d491906111ea565b60018190555061061b6040518060400160405280601581526020017f52616e646f6d20232067656e657261746564203a2000000000000000000000008152506001546108a0565b603260015410610761576106646040518060400160405280600681526020017f257320776f6e00000000000000000000000000000000000000000000000000008152503361093c565b6000655af3107a40009050478111156106b2576040517f08c379a00000000000000000000000000000000000000000000000000000000081526004016106a990610ed6565b60405180910390fd5b60003373ffffffffffffffffffffffffffffffffffffffff16826040516106d890610db5565b60006040518083038185875af1925050503d8060008114610715576040519150601f19603f3d011682016040523d82523d6000602084013e61071a565b606091505b505090508061075e576040517f08c379a000000000000000000000000000000000000000000000000000000000815260040161075590610ef6565b60405180910390fd5b50505b5050565b6107fb816040516024016107799190610e01565b6040516020818303038152906040527f41304fac000000000000000000000000000000000000000000000000000000007bffffffffffffffffffffffffffffffffffffffffffffffffffffffff19166020820180517bffffffffffffffffffffffffffffffffffffffffffffffffffffffff83818316178352505050506109d8565b50565b61089a848484846040516024016108189493929190610e53565b6040516020818303038152906040527f4c55f234000000000000000000000000000000000000000000000000000000007bffffffffffffffffffffffffffffffffffffffffffffffffffffffff19166020820180517bffffffffffffffffffffffffffffffffffffffffffffffffffffffff83818316178352505050506109d8565b50505050565b61093882826040516024016108b6929190610ea6565b6040516020818303038152906040527f9710a9d0000000000000000000000000000000000000000000000000000000007bffffffffffffffffffffffffffffffffffffffffffffffffffffffff19166020820180517bffffffffffffffffffffffffffffffffffffffffffffffffffffffff83818316178352505050506109d8565b5050565b6109d48282604051602401610952929190610e23565b6040516020818303038152906040527f319af333000000000000000000000000000000000000000000000000000000007bffffffffffffffffffffffffffffffffffffffffffffffffffffffff19166020820180517bffffffffffffffffffffffffffffffffffffffffffffffffffffffff83818316178352505050506109d8565b5050565b60008151905060006a636f6e736f6c652e6c6f679050602083016000808483855afa5050505050565b828054610a0d9061113e565b90600052602060002090601f016020900481019282610a2f5760008555610a76565b82601f10610a4857805160ff1916838001178555610a76565b82800160010185558215610a76579182015b82811115610a75578251825591602001919060010190610a5a565b5b509050610a839190610a87565b5090565b5b80821115610aa0576000816000905550600101610a88565b5090565b6000610ab7610ab284610f5b565b610f36565b905082815260208101848484011115610acf57600080fd5b610ada8482856110fc565b509392505050565b600081359050610af1816113b2565b92915050565b600082601f830112610b0857600080fd5b8135610b18848260208601610aa4565b91505092915050565b600060208284031215610b3357600080fd5b6000610b4184828501610ae2565b91505092915050565b600060208284031215610b5c57600080fd5b600082013567ffffffffffffffff811115610b7657600080fd5b610b8284828501610af7565b91505092915050565b6000610b978383610c99565b905092915050565b6000610bab8383610d97565b60208301905092915050565b610bc0816110c0565b82525050565b6000610bd182610fac565b610bdb8185610fe7565b935083602082028501610bed85610f8c565b8060005b85811015610c295784840389528151610c0a8582610b8b565b9450610c1583610fcd565b925060208a01995050600181019050610bf1565b50829750879550505050505092915050565b6000610c4682610fb7565b610c508185610ff8565b9350610c5b83610f9c565b8060005b83811015610c8c578151610c738882610b9f565b9750610c7e83610fda565b925050600181019050610c5f565b5085935050505092915050565b6000610ca482610fc2565b610cae8185611014565b9350610cbe81856020860161110b565b610cc7816112d7565b840191505092915050565b6000610cdd82610fc2565b610ce78185611025565b9350610cf781856020860161110b565b610d00816112d7565b840191505092915050565b6000610d18603483611025565b9150610d23826112e8565b604082019050919050565b6000610d3b602783611025565b9150610d4682611337565b604082019050919050565b6000610d5e601283611025565b9150610d6982611386565b602082019050919050565b6000610d81600083611009565b9150610d8c826113af565b600082019050919050565b610da0816110f2565b82525050565b610daf816110f2565b82525050565b6000610dc082610d74565b9150819050919050565b60006040820190508181036000830152610de48185610bc6565b90508181036020830152610df88184610c3b565b90509392505050565b60006020820190508181036000830152610e1b8184610cd2565b905092915050565b60006040820190508181036000830152610e3d8185610cd2565b9050610e4c6020830184610bb7565b9392505050565b60006080820190508181036000830152610e6d8187610cd2565b9050610e7c6020830186610bb7565b610e896040830185610da6565b8181036060830152610e9b8184610cd2565b905095945050505050565b60006040820190508181036000830152610ec08185610cd2565b9050610ecf6020830184610da6565b9392505050565b60006020820190508181036000830152610eef81610d0b565b9050919050565b60006020820190508181036000830152610f0f81610d2e565b9050919050565b60006020820190508181036000830152610f2f81610d51565b9050919050565b6000610f40610f51565b9050610f4c8282611170565b919050565b6000604051905090565b600067ffffffffffffffff821115610f7657610f756112a8565b5b610f7f826112d7565b9050602081019050919050565b6000819050602082019050919050565b6000819050602082019050919050565b600081519050919050565b600081519050919050565b600081519050919050565b6000602082019050919050565b6000602082019050919050565b600082825260208201905092915050565b600082825260208201905092915050565b600081905092915050565b600082825260208201905092915050565b600082825260208201905092915050565b6000611041826110f2565b915061104c836110f2565b9250827fffffffffffffffffffffffffffffffffffffffffffffffffffffffffffffffff038211156110815761108061121b565b5b828201905092915050565b6000611097826110f2565b91506110a2836110f2565b9250828210156110b5576110b461121b565b5b828203905092915050565b60006110cb826110d2565b9050919050565b600073ffffffffffffffffffffffffffffffffffffffff82169050919050565b6000819050919050565b82818337600083830152505050565b60005b8381101561112957808201518184015260208101905061110e565b83811115611138576000848401525b50505050565b6000600282049050600182168061115657607f821691505b6020821081141561116a57611169611279565b5b50919050565b611179826112d7565b810181811067ffffffffffffffff82111715611198576111976112a8565b5b80604052505050565b60006111ac826110f2565b91507fffffffffffffffffffffffffffffffffffffffffffffffffffffffffffffffff8214156111df576111de61121b565b5b600182019050919050565b60006111f5826110f2565b9150611200836110f2565b9250826112105761120f61124a565b5b828206905092915050565b7f4e487b7100000000000000000000000000000000000000000000000000000000600052601160045260246000fd5b7f4e487b7100000000000000000000000000000000000000000000000000000000600052601260045260246000fd5b7f4e487b7100000000000000000000000000000000000000000000000000000000600052602260045260246000fd5b7f4e487b7100000000000000000000000000000000000000000000000000000000600052604160045260246000fd5b6000601f19601f8301169050919050565b7f547279696e6720746f207769746864726177206d6f7265206d6f6e657920746860008201527f616e2074686520636f6e7472616374206861732e000000000000000000000000602082015250565b7f4661696c656420746f207769746864726177206d6f6e65792066726f6d20636f60008201527f6e74726163742e00000000000000000000000000000000000000000000000000602082015250565b7f57616974203135206d696e757465732121210000000000000000000000000000600082015250565b50565b6113bb816110c0565b81146113c657600080fd5b5056fea26469706673582212205b631df3ccc3264f4dd57ab607a059e9e795df116a0fbd3cb2901d45c07f03f264736f6c63430008040033",
  "linkReferences": {},
  "deployedLinkReferences": {}
}